:03000000020008F3
:0300610002000397
:0500030012089E80FEC2
:010064002279
:0E00650090E682E0FA44C0F090E681E4F043B9
:0B0073008701000000000000000022D8
:08007E00AA82AB837C007D0027
:0E008600C3EC9AED64808BF063F08095F0502F
:0900940008000CBC00EC0D80E931
:01009D002240
:01009E00223F
:0E009F0090E6007412F0000000000000000067
:0E00AD0090E60174E3F0000000000000000087
:0E00BB0090E60B7403F000000000000000004F
:0E00C90090E65CE4F0000000000000000090F3
:0E00D700E65EE4F0000000000000000075800E
:0E00E5000075B20375A00043A08075B4999019
:0E00F300E6027498F00000000000000000908B
:0E010100E60374FEF000000000000000009015
:0E010F00E61174A0F000000000000000009057
:0E011D00E61074A0F00000000000000000904A
:0E012B00E6137460F000000000000000009079
:0E013900E6147462F000000000000000009068
:0E014700E6157462F000000000000000009059
:0E015500E61274A8F000000000000000009008
:0E016300E6047480F000000000000000009030
:0E017100E6047481F000000000000000009021
:0E017F00E6047482F000000000000000009012
:0E018D00E6047484F000000000000000009002
:0E019B00E6047488F0000000000000000090F0
:0D01A900E604E4F0000000000000000090FB
:0D01B600E618E4F0000000000000000090DA
:0E01C300E6497482F000000000000000009089
:0E01D100E6497482F00000000000000000907B
:0E01DF00E6497482F00000000000000000906D
:0E01ED00E6497482F00000000000000000905F
:0E01FB00E6187411F0000000000000000090F3
:0D020900E619E4F000000000000000009085
:0E021600E61A740CF0000000000000000090DA
:0E022400E61B740CF0000000000000000090CB
:0E023200E68D74FFF0000000000000000022C6
:0A02400090E68DE0FA8A357536006D
:08024A007C007D007E807FE74F
:0A025200C3EC9535ED953650358E5E
:09025C00828F83E0F879007A003A
:0E026500C3E99408EA94005016740158FB8B0C
:0E0273008074024BF580E8C313F809B900E46B
:030281000A80E10F
:050284000CBC00010D9F
:070289000EBE00C50F80C28C
:0702900090E68D74FFF022DF
:0E02970043A00153A0F79007D012007E43A0B1
:0102A5000850
:0802A600E5A020E5030080F84B
:0E02AE00E5A020E10D90E6A1E0FA20E1F312B8
:0402BC00024080EE8E
:0402C00053A0FE2227
:0D02C40053A07F900FA012007E43A0802267
:0602D100AA827B007C0004
:0E02D70090E678E0FD20E6F890E6787480F07E
:0502E50090E679EAF04B
:0E02EA0090E678E0FAFD30E0F7ED20E204ED5A
:0302F80020E104FE
:0402FB007B017C0007
:0602FF008C027C007E0071
:0A030500C3EC9538EE64808539F0F2
:0C030F0063F08095F05035EC2535FFEED2
:0A031B003536F8A9378F82888389F0
:09032500F01208C8FF90E679F01F
:0E032E0090E678E0FFFD30E0F7ED20E204ED10
:03033C0020E105B8
:05033F000BBB00010AE8
:070344000CBC00BD0E80BAE5
:0B034B0090E6787440F08B828A8322D9
:02035600AA8279
:0E03580090E678E0FB20E6F890E6787480F0FE
:0703660090E67974014AF0F2
:0E036D0090E678E0FAFB30E0F7EB30E20302B6
:02037B000489F3
:07037D00EB20E103020489FB
:0A0384007401B53806E4B5390280B3
:01038E00026C
:02038F00803BB1
:0A03910090E678E04420F0AA35ABB6
:0A039B0036AC3790E679E0FD8A8267
:0703A5008B838CF01208AFFE
:0E03AC0090E678E0FD30E0F890E678E044401E
:0D03BA00F090E679E0FD8A828B838CF012D2
:0503C70008AF020485EF
:0503CC00AA35AB36ACC0
:0C03D1003790E679E0FD8A828B838CF087
:0303DD001208AF54
:0C03E00090E678E0FD30E0F8E53824FEFF
:0703EC00F53CE53934FFF593
:0503F3003DE4F53AF5C0
:0103F8003BC9
:0603F900C3E53A953CE566
:0A03FF003B6480853DF063F08095BB
:0A040900F0502AE53A2AF9E53B3BE2
:0E041300FF8C0090E679E0FD89828F8388F0EF
:030421001208AF0F
:0C04240090E678E0FD30E0F8053AE4B521
:060430003AC7053B80C342
:0C04360090E678E04420F07401253AF5CF
:050442003CE4353BF530
:060447003DE53A2AFFE545
:0C044D003B3BF88C0190E679E0FD8F82CB
:07045900888389F01208AF4F
:0E04600090E678E0FD30E0F890E678E0444069
:0A046E00F0E53C2AFAE53D3BFB9067
:0D047800E679E0FD8A828B838CF01208AFDC
:0404850090000022C1
:0B04890090E678E04440F090FFFF2276
:06049400AA82AB83ACF06C
:0E049A0090E678E0FD20E6F890E6787480F0B9
:0E04A8008A828B838CF01208C8FD90E679746E
:0304B600FE5DF0F8
:0E04B90090E678E0FEFF30E0F7EF20E24BEF38
:0E04C70030E14774022AFEE43BFF8C008E8277
:0C04D5008F8388F01208C8FE90E679F0D2
:0C04E10090E678E0FE30E0F874032AF5A5
:0604ED0035E43BF5368CFE
:0604F300370ABA00010BFC
:0C04F9008A828B838CF01208C8FA8A38C3
:0C0505007539008D821203569000002210
:0B05110090E678E04440F090FFFF22ED
:06051C00AA82AB83ACF0E3
:0E05220090E678E0FD20E6F890E6787480F030
:0E0530008A828B838CF01208C8FD90E67974E5
:03053E00FE5DF06F
:0E05410090E678E0FEFF30E0F7EF20E24BEFAF
:0E054F0030E14774022AFEE43BFF8C008E82EE
:0C055D008F8388F01208C8FE90E679F049
:0C05690090E678E0FE30E0F874032AF51C
:0605750035E43BF5368C75
:06057B00370ABA00010B73
:0C0581008A828B838CF01208C8FA8A383A
:0C058D007539008D821203569000002288
:0B05990090E678E04440F090FFFF2265
:0605A400AA82AB83ACF05B
:0E05AA0090E678E0FD20E6F890E6787480F0A8
:0E05B8008A828B838CF01208C8FD90E679745D
:0305C600FE5DF0E7
:0E05C90090E678E0FEFF30E0F7EF20E24BEF27
:0E05D70030E14774022AFEE43BFF8C008E8266
:0C05E5008F8388F01208C8FE90E679F0C1
:0C05F10090E678E0FE30E0F874032AF594
:0605FD0035E43BF5368CED
:06060300370ABA00010BEA
:0C0609008A828B838CF01208C8FA8A38B1
:0C0615007539008D8212035690000022FF
:0B06210090E678E04440F090FFFF22DC
:06062C00AA82AB83ACF0D2
:0E06320090E678E0FD20E6F890E6787480F01F
:0E0640008A828B838CF01208C8FD90E67974D4
:03064E00FE5DF05E
:0E06510090E678E0FEFF30E0F7EF20E26AEF7F
:0E065F0030E16674022AFEE43BFF8C008E82BE
:0C066D008F8388F01208C8FE90E679F038
:0E06790090E678E0FE30E0F874032AFEE43BE1
:0E068700FF8C008E828F8388F01208C8FE90D0
:03069500E679F013
:0C06980090E678E0FE30E0F874042AF5EB
:0606A40035E43BF5368C45
:0606AA00370ABA00010B43
:0C06B0008A828B838CF01208C8FA8A380A
:0C06BC007539008D821203569000002258
:0B06C80090E678E04440F090FFFF2235
:0A06D30090E68DE0FA8A0875090030
:0A06DD00C374289508E49509500A3B
:0A06E70090E68D74FFF090000122F0
:0806F1007C007D007E807FE7A4
:0A06F900C3EC9508ED95095018ECCC
:0C070300240DF88E828F83E0FAA3AE82F2
:0B070F00AF83A6020CBC00E20D80DFEF
:09071A00E50DFA20E0030207B529
:06072300AB08EB250EF50A
:0C0729000C24D7500A90E68D74FFF0906D
:030735000001229E
:0907380074FE5AFCBC4002801A58
:05074100BC8002800AEB
:05074600BCAA028026A0
:05074B00BCAE2C80167D
:0B07500090000D75F040120494801F13
:0B075B0090000D75F0401205A4801402
:0B07660090000D75F04012062C800979
:0907710090000D75F04012051C0A
:09077A00E4F50AF50B7EC07FE7EF
:09078300AB0C7C00C3E50A9BE508
:07078C000B9C501CE50A2440
:0C0793000DF886038E828F83EBF0A3AE7E
:0A079F0082AF83050AE4B50ADB050A
:0307A9000B80D7EB
:0907AC0090E68FE50CF002087ED6
:0C07B5005302FEBA425AE50EFA24FC5032
:0407C1000302087EA9
:0707C500EA2A2A9007CC7319
:0707CC000207D80207EA0250
:0507D30007E40207DE4F
:0607D8001202C402087EBB
:0607DE0053A0EF02087EAB
:0607E40043A01002087E94
:0E07EA0090E6047480F00000000000000000A3
:0E07F80090E6047481F0000000000000000094
:0E08060090E604E4F000000000000000008016
:01081400697A
:0A0815007A037B00E50824FFFCE5F0
:04081F000934FFFD9C
:0E082300C3E49A74808BF063F08095F0504D22
:050831001ABAFF011BD3
:05083600850D827535FF
:05083B000E753600758A
:0508400037408C388DEB
:0C08450039C002C003C004C0051202D17B
:0E085100E5828583F0D005D004D003D00245A7
:07085F00F07004FAFB80BDFC
:0E086600900FA0C002C003C004C00512007EA7
:0A087400D005D004D003D00280A507
:0A087E0090E68D74FFF09000002258
:0E08880090E6A1E0FA20E10643A0011206D39B
:0808960053A0FE12009E80EA4F
:07089E0012009E12009F12E0
:0508A50002971202C4DD
:0508AA0012088880FB2C
:06003700E478FFF6D8FD9D
:080015007900E94400601B7A48
:05001D00009008E878E6
:030022000075A0C6
:0A00250000E493F2A308B8000205FE
:08002F00A0D9F4DAF275A0FF7C
:0E08AF0020F71030F6118883A88220F507F696
:0508BD00A88375830013
:0108C2002213
:0308C300F280F7C9
:0208C600F0221E
:08003D007800E84400600A7934
:030045000075A0A3
:0600480000E4F309D8FCFE
:08004E007800E84400600C7921
:0B00560000900000E4F0A3D8FCD9FAF1
:0300080075813DC2
:0A000B001208E4E58260030200031E
:0E08C80020F71430F6148883A88220F507E686
:0608D600A88375830022D7
:0308DC00E280F7C0
:0308DF00E493227D
:0208E200E02212
:0408E40075820022F7
:00000001FF
